{
  "abi": [
    {
      "inputs": [
        {
          "internalType": "bytes",
          "name": "proof",
          "type": "bytes"
        },
        {
          "internalType": "uint256[]",
          "name": "instances",
          "type": "uint256[]"
        }
      ],
      "name": "verifyProof",
      "outputs": [
        {
          "internalType": "bool",
          "name": "",
          "type": "bool"
        }
      ],
      "stateMutability": "nonpayable",
      "type": "function"
    }
  ],
  "bytecode": {
    "object": "60806040523461001f57610011610024565b6129fb61003082396129fb90f35b61002a565b60405190565b600080fdfe60806040526004361015610013575b61014d565b61001e60003561002d565b631e8e1e130361000e5761012f565b60e01c90565b600080fd5b600080fd5b600080fd5b600080fd5b600080fd5b600080fd5b909182601f8301121561008b5781359167ffffffffffffffff831161008657602001926001830284011161008157565b61004c565b610047565b610042565b909182601f830112156100ca5781359167ffffffffffffffff83116100c55760200192602083028401116100c057565b61004c565b610047565b610042565b909160408284031261012a57600082013567ffffffffffffffff811161012557836100fb918401610051565b929093602082013567ffffffffffffffff81116101205761011c9201610090565b9091565b61003d565b61003d565b610038565b346101485761013f3660046100cf565b92919091610321565b610033565b600080fd5b600090565b60409182919593949581359660208301359181891016818310169080600381808c80098c0908908380091416968652602086015201920190565b909160209260002090810682526000520190602090565b60209160018353602160002090810682526000520190565b90939293829185825160208401955b60208103871061024f575085519009602084526020808501526020604085015260608401526002860360808401528560a084015260208360c08160055afa16948251919360208086019403905b80851061023457505080835183099184519009925252565b6020809184808551880996825190099581520391039061021c565b94959160208092918192855190099384895201960194889291506101cf565b91906040526060526040600060808160065afa1690565b906040526040600060608160075afa1690565b919060c05260e05260406080808060065afa1690565b9060c0526040608060608160075afa1690565b9392919060005260205261086051604052610880516060526108a0516080526108c05160a05260c05260e0526108e05161010052610900516101205261092051610140526109405161016052602060006101808160085afa166000511690565b5050505061032d610152565b507f30644e72e131a029b85045b68181585d97816a916871ca8d3c208c16d87cfd4760017f0f9bd2e657c4beabd41d3ddf0fbc5c3c10e876d1ad6d9b7102631f50a16e43516106c052600d6106e0527f3062cb506d9a969cb702833453cd4c52654aa6a93775a2c5bf57d68443608001610700527f10e3d295c1599ff535a1bb49f23d81aa03bd0ed25881f9ed12b179af67f67ae1610720527f09ff38534bd08f2b08b6010aaee9ac485d3afb3a9ae4280907537b08fc6e53e5610740527f1fe62c4a3c6640bbac666390d8ab7318a0de5374d46b2921e3217838d26470ad6107605260026107805260006107a05260006107c05260006107e0526000610800526001610820526002610840527f198e9393920d483a7260bfb731fb5d25f1aa493335a9e71297e485b7aef312c2610860527f1800deef121f1e76426a00665e5c4479674322d4f75edadd46debd5cd992f6ed610880527f090689d0585ff075ec9e99ad690c3395bc4b313370b38ef355acdadcd122975b6108a0527f12c85ea5db8c6deb4aab71808dcb408fe3d1e7690c43d37b4ce6cc0166fa7daa6108c0527f186282957db913abd99f91db59fe69922e95040603ef44c0bd7aa3adeef8f5ac6108e0527f17944351223333f260ddc3b4af45191b856689eda9eab5cbcddbbe570ce860d2610900527f06d971ff4a7467c3ec596ed6efc674572e32fd6f52b721f97e35b0b3d3546753610920527f06ecdb9f9567f59ed2eee36e1e1d58797fd13cc97fafc2910f5e8a12f202fa9a610940527f1ffcf714d8e287c84c8115cb88741ec644df2cbabeb269528b8880d86c9e11b2610960527f2d6859e37e1d800f17a4ec8578c41aeb31c7cfbc468dcce9674bc3d8e53995d5610980527f020c483159a6275b54ed5cfd84057c5472ad26f74b643d7022bdc4e76dc67e596109a0527f2d7e94f2e189541810ee5b24a66bdc9710851ec522aebd1b2d388e43df004a886109c0527f24624a1ec8225b808fed5ff99e2cab075786a8bfc7e7ade6c0e484180f8dce5f6109e0527f0e0e4fb66fdad4e288113b9cb0766b2053d0b4a4c1d1deadf2755a70a4ea6df8610a00527f2f89d6e4ff13fc4867ac37abc6d4b5306390e99e89fe8d73b051be5bf12864c9610a20527f0ff3b77d315399f0d63b79a459a4a5862fb914b9f9732831aba4c0f956185e29610a40527f303924113a234ce615dba9d4f450c24e865631507f2dd3b6a51f9c21925dcb6c610a60527f2722a819fe3cbb9fbe73cfb99228c7bebf15b5f16ea65f0e42d3d7305cba3a48610a80527f2461ca030f3fa93cab5cade16892baac45f2ce7999214df23b297a0989816462610aa0527f27f8d3bb759583f26e141b93574e44d397fc35c1a9b56576636b2560543df2ac610ac0527f26692a8bf01e9c59a33a740b31e4aadab931da44d29075d6914f233da6c6bcf3610ae0527f0dbfc652acbf463a80604a2c096e4ebfa626ec9c5e7b34dba6efbf77189834c0610b00527f2f23244aa53ac0febf88362358078a0f322711efd1132e308fde9a7bb7c0e512610b20527f029e88a0df223a6d3e6bea4feb4b49ebc49160bb637ad7fbc824179e0286c789610b40527f0cbd2b16119ac137bcb46cbc6b1631fd33c04f00cb232d51a18ba397b899549e610b60527f1c934057195fc39dd895426736704b0fc9a2bedb43c0322b997d53094d368712610b80527f1991332e29a50e19074148f92ddfbb8c220be0293f618e773f5f0294a61caf63610ba0527f16f3a2f98109079a086be46d74b79ccf6b75191a07981d779b2006626501b2c0610bc0527f17c8b3900dd4c1255f17339d878fd5678b37ce7aeab5314f90c41139b9bf4207610be0527f28a4e48f6fd2134ca20548254c6daf3b0dfefe9f2f5b8dc1d0d15d1b387aab4e610c00527f0cdf758f99ee4b77912ab5202f5776655cc0bf63a4f36071e7a88c2713860fea610c20527f17fc91c2b8821937deb023f12564ec0b6f54775d61a6c281534f85e0b5f9680d610c40527f2481e141322fb1baf11a34ac5f203fe2a502d85e2faa7c238b28f04f6d8768f6610c60527f113820fb2c7635daa2f346036913158be5c22703708e2b622a81c1a04c9b018f610c80527f0ea1d4b36d7af5a284dd9b14e7c4a378b298ec46079de7cb03e84d48f40dc97d610ca0527f17f1b8fd13e6488fdba54d9e7c864ff57ec80f09fc62b62bd5f28cbc8aca985e610cc0527f221c1e44a1ce5796d36c55b90e35031aed8b17cb593f653f3c50e34278f71a60610ce0527f0fce26ddd1ff35fe42dc760c2c7d2047fa4848679f5c9d3f1056ef5706f02d01610d00527f088d0c911d67886808689646261ffa557af48dc19f328a6131516c7ccb3c2871610d20527f2bbe18abc41657fdeeeafcb106ae4b8627ef7f26790913efcb2c1f581f2b4825610d40527f19418a26c846e357d36923c4408728febd26dad219078210e1c3cc10068e4ffb610d60527f302fc51dfb392cb3a079ccef36cc5ed13b8dfa6eb26055040a5533fa585b97af610d80527f279aa56932218dd0da4392058fb83c6d37fefd798f79c63aac3bd82cb3814622610da0527f05bc71b8caed20d18970d2e400bb5644ddd900c97b47cf805eb9cd655b23c242610dc0527f090ccee5286dad5ac7aa82ffe6fd5702f8f09214bc2068e71a6c61c8dfbf47b3610de0527f017020dbfca6dbb2c0dbf63b158315cbbcdd3ea724591182d4196c80d34c5a36610e00527f03d456abf2ec59e95b65463bb3d65a19345304982c98cd14d525f1dcf6ff7149610e20527f17005aec6c509ed601aab60968e53dc0965323d165ed8aaf12ee7487fc4def5b610e40527f2b1a77d938f48b710c18d156d70453037b11a27e5683046a2eb9503d38904599610e60527f3009afbd26e6675c67b332cae3d64deef997ae917ec605ffae8b366896769ba4610e80527f0a7996aa36917b2d360c2b7483d55745e68081d52528c518c61e34ae6ae959de610ea0527e08bebe37e9ab56bb961edd911f65d07f60860309390fe53e4d0b0894b8ea42610ec0527f2f753937e56119f7b839e62aae84671ad78e883a79dec53c3edf68beffbd35d8610ee0527f1490e5e2443452ab8c3886ff3ed675261e281cad52086104b34c4612d354c284610f00527f01a7837e6470babb230978a3079af34e382588caaf1c0c791e81f37222798929610f20527f155c9bea95acf37b018196229c82254163940010ab902b96a4dcde67c6a99a6f610f4052604435610b801416816107805191610be4358314166106c051600052602092610c04906020028101905b818110612984575050606492610f6061018085015b8086106129685750610cc3917f30644e72e131a029b85045b68181585d2833e84879b9709143e1f593f000000191610191565b90608085015b80861061294c5750610d007f30644e72e131a029b85045b68181585d2833e84879b9709143e1f593f00000018093610d0793610191565b92906101a8565b61018085015b8086106129305750610d40917f30644e72e131a029b85045b68181585d2833e84879b9709143e1f593f000000191610191565b9061014085015b8086106129145750610d7a917f30644e72e131a029b85045b68181585d2833e84879b9709143e1f593f000000191610191565b939061064082015b8083106128d15750610dd2847f30644e72e131a029b85045b68181585d2833e84879b9709143e1f593f00000018094610dcc610dc583610de39b610ddb98610191565b93906101a8565b96610157565b90939194610191565b929050610157565b5050906107a05161280e575b508015612809576106e051610fe0519081906000905b8082106127d957505061072051926110e0926006610780510160200284019385610760515b8683106127a15750505050610e717f30644e72e131a029b85045b68181585d2833e84879b9709143e1f593f000000180600181038508928386526110e060208701916101c0565b937f30644e72e131a029b85045b68181585d2833e84879b9709143e1f593f00000016110e09261070051900991610760515b858210612769575050505060206110e0015160406110e0019260c06110e0015b80851061273757507f30644e72e131a029b85045b68181585d2833e84879b9709143e1f593f0000001610c043585510993602080610c0401910161078051602002610c0401905b8183106126fb57505050516110e0519060c06110e00151936110e05261110052611120526111405261116052611180527f30644e72e131a029b85045b68181585d2833e84879b9709143e1f593f000000180610fc0518180808080808080808080808c8180808080808080808080808c81808080808080806107c4358180807f066f6f85d6f68a85ec10345351a23a3aaf07f38af8c952a7bceca70bd2af7ad58180610584356106e4359008818082800980090909817f2b9d4b4110c9ae997782e1509b1d0fdb20a7c02bbd8bea7305462b9f8125b1e881806105a43561070435900881808280098009090990086105c4358203900890098189816107c4358180807f0cc57cdbb08507d62bf67a4493cc262fb6c09d557013fff1f573f431221f8ff98180610584356106e4359008818082800980090909817f1274e649a32ed355a31a6ed69724e1adade857e86eb5c3a121bcd147943203c881806105a43561070435900881808280098009090990086105e4358203900890099209088188816107e435818080610584356106e43590088180828009800909610604358203900890099209088187816107e43581808080807f066f6f85d6f68a85ec10345351a23a3aaf07f38af8c952a7bceca70bd2af7ad56106043509817f2b9d4b4110c9ae997782e1509b1d0fdb20a7c02bbd8bea7305462b9f8125b1e8816105a4356107043590080990086106a4359008818082800980090981807f13abec390ada7f4370819ab1c7846f210554569d9b29d1ea8dbebd0fa8c53e666105c43509817f1eb9e1dc19a33a624c9862a1d97d1510bd521ead5dfe0345aaf6185b1a1e60fe6105e4350990088203900890099209088186816107e435818080807f0cc57cdbb08507d62bf67a4493cc262fb6c09d557013fff1f573f431221f8ff96106043509817f1274e649a32ed355a31a6ed69724e1adade857e86eb5c3a121bcd147943203c8816105a4356107043590080990086106c435900881807f0fc1c9394db89bb2601abc49fdad4f038ce5169030a2ad69763f7875036bcb026105c43509817f16a9e98c493a902b9502054edc03e7b22b7eac34345961bc8abced6bd147c8be6105e4350990088203900890099209088185818061080435818080600293818181038096089009818460030890099160040890098180610644356105843590086105c43582039008900992090881848180610804358180806002938181810380960890098184600308900991600408900981610624356105e43582039008900992090891818061082435818080600293818181038096089009818460030890099160040890098161056435818061052435610544359009610664359008820390089009920908818d8180610804358180806001938181810380960890098184600208900991600308900981610564358161054435610664359009820390089009920908818c8180610844358180600192818181038095089009916003089009816105643561054435820390089009920908818b8180610804358180806001938181810380960890098184600308900991600408900981610564358161052435610544359008820390089009920908818a81806108243581808060019381818103809608900981846002089009916003089009816105643581610524356105443590098203900890099209088189818061080435818080600193818181038096089009818460020890099160040890098161056435816105243561054435820390088203900890099209088188818061082435818080600193818181038096089009818460030890099160040890098161056435816105443561066435900882039008900992090881878180610824358180806001938181810380960890098184600208900991600408900981610564356105443582038203900890099209088186818061084435818060029281818103809508900991600308900961054435900992090881858161084435818060019281808281039281848808900991600208900991816105443591810382089009900992090881848161116051816109a435820982039008920908918180610a643581818103918009086111205109920908818d81806109e4358103610a0435086111605109920908818c8180610a44358103610a6435086111605109920908818b8180610fa05181610f805191818080806109c435818089818981808080806109a4359a81878180610884358d096105243508089009818681806108a4358c096105443508089009818581806108c4358b096105643508089009946108e4359009610684350808900998610fe05190096000528186816000516105243508089009817f09226b6e22c6f0ca64ec26aad4c86e715b5f898e5e963f25870e56bbe533e9a2600051096000528185816000516105443508089009817f09226b6e22c6f0ca64ec26aad4c86e715b5f898e5e963f25870e56bbe533e9a260005109600052818481600051610564350808900991817f09226b6e22c6f0ca64ec26aad4c86e715b5f898e5e963f25870e56bbe533e9a260005109600052816000516106843508089009827f09226b6e22c6f0ca64ec26aad4c86e715b5f898e5e963f25870e56bbe533e9a260005109600052820390088180611140516111205108820982039008920908818a8180610fa05181610f8051918180808080610a24359781878180808080610a04359f81878180610904358d09610584350808900981868180610924358c096105a4350808900981858180610944358b096106a43508089009946109643590096111805108089009968186816000516105843508089009817f09226b6e22c6f0ca64ec26aad4c86e715b5f898e5e963f25870e56bbe533e9a2600051096000528185816000516105a43508089009817f09226b6e22c6f0ca64ec26aad4c86e715b5f898e5e963f25870e56bbe533e9a2600051096000528184816000516106a4350808900991817f09226b6e22c6f0ca64ec26aad4c86e715b5f898e5e963f25870e56bbe533e9a260005109600052816000516111805108089009827f09226b6e22c6f0ca64ec26aad4c86e715b5f898e5e963f25870e56bbe533e9a26000510960005282039008818061114051611120510882098203900892090881898180610fa05181610f80518180610a843581868180610a6435976109843590096106c4350808900993816000516106c4350808900982039008818061114051611120510882098203900892090881888161116051610aa435900992090881878161112051610aa435900992090881868180610f60518180610f80518180828161072435818961074435920908089481610784359181806001809509938180808080610524358a0994898203900893817f30644e72e131a029b85045b68181585d2833e84879b9709143e1f593efffe9c586099008966105443590099160009009900892090808918180828186610ae43509820390089381610aa4358103610ac435089209099082039008818061112051611140510881036001080992090881858161116051610b0435900992090881848161112051610b04359009920908918180610f60518180610f805181808281610724358189610764359209080894816107a4359181806001809509938180808080610524358a0994898203900893817f30644e72e131a029b85045b68181585d2833e84879b9709143e1f593efffe9c586099008966105443590099160009009900892090808918180828186610b443509820390089381610b04358103610b243508920909908203900881806111205161114051088103600108099209086111005190096111a0526104e43560005260206104e401356020526110e05160406104e4039060406103e403905b8282106126cf57836000516111c0526020516111e0527f30644e72e131a029b85045b68181585d2833e84879b9709143e1f593f00000018080610fe0518180806107205181610740518098818881999782989683970961042052806104005209806103e05209090909096103c052611040516104406104c0916103c0915b83811061269957611c2f7f30644e72e131a029b85045b68181585d2833e84879b9709143e1f593f0000001610180600088610480516104c0528380610440516104605190096104a0519009806104e052825283610440516104a0519009610500526104405161052052610460516105405283610440516104605190096105605283600161048051900960205283806103e0516104005190828083810383086104605190096040528203900861048051900960605283806103e051816104005191816104205191818080878103840881868103850890096104605190096080528180808381038808818681038908900961048051900960a05281038208928203900890096104a051900960c05283806103c0518161040051918161042051918180808781038408818681038508900961044051900960e052818080838103880881868103890890096104805190096101005281038208928203900890096104a05190096101205283806104005161042051908280838103830861048051900961014052820390086104a0519009610160526101c0565b600051806104e05261050090610580915b8281106126695783602051611000517f30644e72e131a029b85045b68181585d2833e84879b9709143e1f593f0000001808281600081610864358809900809816111a051850990086109846108645b8181106126315750506108446106645b8181106125f957857f30644e72e131a029b85045b68181585d2833e84879b9709143e1f593f000000186818088818082818082818f82828d81808481960991610b4435900990080981610ae4358d0990080981610604358a0990080981610544358709900809916105243590099008610580527f30644e72e131a029b85045b68181585d2833e84879b9709143e1f593f000000180806000816106643560405109900881610564356060510990086105005190096105a0527f30644e72e131a029b85045b68181585d2833e84879b9709143e1f593f0000001808080806110005181808060008161062435608051099008816105a43560a051099008816105e43560c051099008098161064435608051099008816105843560a051099008816105c43560c0510990086105205190096105c0527f30644e72e131a029b85045b68181585d2833e84879b9709143e1f593f00000018080808061100051818080600081610a443560e05109900881610a04356101005109900881610a24356101205109900809816109e43560e051099008816109a43561010051099008816109c435610120510990086105405190096105e0527f30644e72e131a029b85045b68181585d2833e84879b9709143e1f593f000000180808061100051818080838180600081610b04356101405109900881610b2435610160510990080981610aa4356101405109900881610ac435610160510990080981610a64356101405109900881610a84356101605109900861056051900961060052602051610620527f30644e72e131a029b85045b68181585d2833e84879b9709143e1f593f00000016040516060519008610640527f30644e72e131a029b85045b68181585d2833e84879b9709143e1f593f00000018060805160a051900860c0519008610660527f30644e72e131a029b85045b68181585d2833e84879b9709143e1f593f00000018060e051610100519008610120519008610680527f30644e72e131a029b85045b68181585d2833e84879b9709143e1f593f0000001610140516101605190086106a052600060a090610620905b8281106125e857611fdf7f30644e72e131a029b85045b68181585d2833e84879b9709143e1f593f000000160a06000876101c0565b7f30644e72e131a029b85045b68181585d2833e84879b9709143e1f593f00000016106005160805109606060a06105e05b8183106125a5575050506112005261205061204161102051926103a4356000526103c4356020526110005190610285565b6111e051906111c0519061026e565b610f20610a605b81811061257a57836120fb6120ec6120e26120d36120c96120ba6120b06120a16120976120888d6110005190610285565b610a0051906109e0519061026e565b6110005190610285565b6109c051906109a0519061026e565b6110005190610285565b610a805190610a60519061026e565b6110005190610285565b610a405190610a20519061026e565b6110005190610285565b6109805190610960519061026e565b6102246101645b81811061254f5750506110005161211891610285565b60c43560a4356121279261026e565b6110005161213491610285565b6084356064356121439261026e565b60e4356080526101043560a052610500517f30644e72e131a029b85045b68181585d2833e84879b9709143e1f593f0000001908309612181916102ae565b60a0516080516121909261026e565b90611020517f30644e72e131a029b85045b68181585d2833e84879b9709143e1f593f0000001910990610164356080526101843560a052611000516121d4916102ae565b61014435610124356121e592610298565b610520517f30644e72e131a029b85045b68181585d2833e84879b9709143e1f593f0000001908309612216916102ae565b60a0516080516122259261026e565b90611020517f30644e72e131a029b85045b68181585d2833e84879b9709143e1f593f00000019109906102a4356080526102c43560a05261100051612269916102ae565b610284356102643561227a92610298565b610540517f30644e72e131a029b85045b68181585d2833e84879b9709143e1f593f00000019083096122ab916102ae565b60a0516080516122ba9261026e565b90611020517f30644e72e131a029b85045b68181585d2833e84879b9709143e1f593f0000001910990610364356080526103843560a052611000516122fe916102ae565b610344356103243561230f92610298565b6110005161231c916102ae565b610304356102e43561232d92610298565b90610560517f30644e72e131a029b85045b68181585d2833e84879b9709143e1f593f0000001910961235e916102ae565b60a05160805161236d9261026e565b610820516080526108405160a052611200517f30644e72e131a029b85045b68181585d2833e84879b9709143e1f593f0000001036123aa916102ae565b60a0516080516123b99261026e565b610b6435608052610b843560a0526104c0517f30644e72e131a029b85045b68181585d2833e84879b9709143e1f593f0000001036123f6916102ae565b60a0516080516124059261026e565b610ba435608052610bc43560a05261104051612420916102ae565b60a05160805161242f9261026e565b6000516112205260205161124052610ba43561126052610bc435611280526107a0519061247491612489575b61128051906112605190611240519061122051906102c1565b1561248457600160005260206000f35b600080fd5b61252d61253c9161106051600052611080516020526110a0516040526110c051606052611220516080526112405160a0526112605160c0526112805160e05261250c6124fd7f30644e72e131a029b85045b68181585d2833e84879b9709143e1f593f0000001610100600020068093610285565b6112405190611220519061026e565b60005161122052602051611240526110a0516000526110c051602052610285565b6112805190611260519061026e565b600051611260526020516112805261245b565b90916125726125646040926110005190610285565b60208501359085359061026e565b920390612102565b909161259d61258f6040926110005190610285565b60208501519085519061026e565b920390612057565b90919260207f30644e72e131a029b85045b68181585d2833e84879b9709143e1f593f0000001808293611020519009818551885109900894039103919091612010565b602080918351815201910190611faa565b90917f30644e72e131a029b85045b68181585d2833e84879b9709143e1f593f000000160209181868187358a09920908920390611c9f565b90917f30644e72e131a029b85045b68181585d2833e84879b9709143e1f593f000000160209181868187358a09920908920390611c8f565b807f30644e72e131a029b85045b68181585d2833e84879b9709143e1f593f0000001836020935109815201611c40565b602080917f30644e72e131a029b85045b68181585d2833e84879b9709143e1f593f0000001855181038508815201920191611a9a565b9091926126ef6126e183604093610285565b60208601359086359061026e565b93038092919050611a1c565b90919560207f30644e72e131a029b85045b68181585d2833e84879b9709143e1f593f00000018192818a35865109900897019101919091610f0a565b93917f30644e72e131a029b85045b68181585d2833e84879b9709143e1f593f000000160209184519008920193610ec3565b7f30644e72e131a029b85045b68181585d2833e84879b9709143e1f593f0000001838282806020958751098809855209910190610ea3565b602091817f30644e72e131a029b85045b68181585d2833e84879b9709143e1f593f00000018093810387088552099101908690610e2a565b90917f30644e72e131a029b85045b68181585d2833e84879b9709143e1f593f00000018160019209920190610e05565b600080fd5b6107e051906108005160206107c05102610c04019160208402946002860293600387029381359780830135958784013597818501359960200285019284955b848110612895575050505050505081600381808980098909088284800914169080600381808780098709089085800914169361106052611080526110a0526110c05238610def565b94602081979c9b9a9d9293949596019182358d1b019c838301358d1b0199848301358d1b019a858301358d1b019b01949392919095949561284d565b9294935090602081819235967f30644e72e131a029b85045b68181585d2833e84879b9709143e1f593f00000018810169686520193019190859391949294610d82565b9391909461292193610157565b91939092908593949291610d47565b9391909461293d93610157565b91939092908593949291610d0d565b9391909461295993610157565b91939092908593949291610cc9565b9391909461297593610157565b91939092908593949291610c90565b602091935080829195939535957f30644e72e131a029b85045b68181585d2833e84879b9709143e1f593f00000018710169584520191019184929391610c7b56fea264697066735822122057348356729ae5926a066183b88e70a8331ca3b9bb78e4175d6e130aef457a7f64736f6c63430008150033",
    "linkReferences": {}
  },
  "methodIdentifiers": {
    "verifyProof(bytes,uint256[])": "1e8e1e13"
  },
  "id": 0
}